:020000040000FA
:0600000064EF02F01200A3
:020006001200E6
:060008003FEF00F01200C2
:02000E000100EF
:0C00100008050000800000001400000043
:04001C00D9CFE6FF53
:10002000E1CFD9FF020EE126DE6ADD6ADECF10F0F5
:10003000DDCF11F0FD0EDBCF12F0FE0EDBCF13F0A3
:1000400011501318E8AE02D0133404D01250105CD3
:10005000135011580AE2620EE66E72EC02F0E5529D
:10006000DF2A010E01E3DB2AE1D7020EE15C02E2A6
:10007000E16AE552E16EE552E7CFD9FF1200DACF2F
:10008000E4FFE2CFDAFFE9CFE4FFEACFE4FFF6CF07
:10009000E4FFF7CFE4FFF5CFE4FFF3CFE4FFF4CFC5
:1000A000E4FFFACFE4FF000EE96E000EEA6E100ED8
:1000B000E80403E3EECFE4FFFBD7100EE96E000E79
:1000C000EA6E040EE80403E3EECFE4FFFBD7E6524A
:1000D000F0A002D0C1D8F090F2A202D0BCD8F29227
:1000E000F2A406D0BAD83C0ED76E950ED66EF29416
:1000F000E552130EE96E000EEA6E040EE80403E307
:10010000E5CFEDFFFBD70F0EE96E000EEA6E100E85
:10011000E80403E3E5CFEDFFFBD7E5CFFAFFE5CF3A
:10012000F4FFE5CFF3FFE5CFF5FFE5CFF7FFE5CF30
:10013000F6FFE5CFEAFFE5CFE9FFE5CFDAFF1100F3
:10014000F288F28E1200F086F28E1200F184F28AAA
:100150003C0ED76E950ED66E800ED56EF28E1200C6
:10016000D9CFE6FFE1CFD9FF0A0EE1263F0EDF6EC1
:10017000DE52060EDD6E5B0EF36E020EF3CFDBFF7A
:100180004F0EF36E030EF3CFDBFF660EF36E040E1D
:10019000F3CFDBFF6D0EF36E050EF3CFDBFF7D0EAD
:1001A000F36E060EF3CFDBFF070EF36EF3CFDBFF2C
:1001B0007F0EF36E080EF3CFDBFF6F0EF36E090EAA
:1001C000F3CFDBFFFD0EDB50040806E1F70E86C01F
:1001D000E9FF87C0EAFFEF6EFD0EDB50030806E182
:1001E000FB0E86C0E9FF87C0EAFFEF6EFD0EDB5015
:1001F000020806E1FD0E86C0E9FF87C0EAFFEF6E48
:10020000FD0EDB0406E1FE0E86C0E9FF87C0EAFFB3
:10021000EF6ED9CF10F0DACF11F0FE0EDB500F01E8
:100220001024E96E000E1120EA6EEF5082C0E9FF43
:1002300083C0EAFFEF6E010EE66EE66AEFDEE5527E
:10024000E5520A0EE15C02E2E16AE552E16EE55236
:10025000E7CFD9FF12001200120000018C2B000E14
:100260008D23010EE66E90C010F091C011F00A0EC1
:100270000D6E0E6A10C008F011C009F028EC02F0F3
:1002800004C010F005C011F01050E66E69DFE552B1
:10029000E552020EE66E0A0E106E116A90C008F06A
:1002A00091C009F010C00DF011C00EF028EC02F062
:1002B0000850E66E55DFE552E552030EE66E92C039
:1002C00010F093C011F00A0E0D6E0E6A10C008F007
:1002D00011C009F028EC02F004C010F005C011F0C4
:1002E0001050E66E3DDFE552E552040EE66E0A0E52
:1002F000106E116A92C008F093C009F010C00DF0A2
:1003000011C00EF028EC02F00850E66E29DFE5522D
:10031000E5528CC010F08DC011F0060E0D6E0E6A05
:1003200010C008F011C009F028EC02F004C010F071
:1003300005C011F01050111004E10001902B000EC7
:1003400091233C0E000191AF02D0D89003D0905D74
:10035000000E915905E3906B916B922B000E932345
:100360003C0E93AF02D0D89003D0925D000E93590B
:1003700002E3926B936B120088C0E9FF89C0EAFF29
:10038000EF6884C0E9FF85C0EAFFEF6A80C0E9FF3B
:1003900081C0EAFFEF6A82C0E9FF83C0EAFFEF6A2B
:1003A000FE0E86C0E9FF87C0EAFFEF6ECFDEFFD703
:0203B000120039
:0E03B2000E0EF66E000EF76E000EF86E0001D5
:1003C0000900F550996F0900F5509A6F03E199679C
:1003D00001D03DD00900F550946F0900F550956F9C
:1003E0000900F550966F09000900F550E96E090003
:1003F000F550EA6E090009000900F550976F0900F1
:10040000F550986F09000900F6CF9BF0F7CF9CF0EC
:10041000F8CF9DF094C0F6FF95C0F7FF96C0F8FFA7
:100420000001975302E1985307E00900F550EE6E82
:100430009707F8E29807F9D79BC0F6FF9CC0F7FF33
:100440009DC0F8FF00019907000E9A5BBFD712000C
:10045000006A0EAE31EF02F00D6C0E1EE86A0E223D
:10046000001E09AE39EF02F0086C091EE86A092285
:10047000001E4EEC02F009BE49EF02F000AE000C87
:10048000086C091EE86A0922046C051EE86A052248
:0C049000000C00BE40EF02F00188FF0CE1
:04049C00056A046A7F
:1004A000100EE76ED89008360936043605360D5022
:1004B000045C0E50055805E30D50045E0E50055ABD
:0804C000082AE72EF0D7120014
:0804C80015EE00F025EE00F036
:1004D000F86A019CD9EC01F003EC00F0BCEC01F0EF
:0404E000FBD7120034
:0C04E400FF0EE350E84E1200000000D0B4
:0A04F00000D000D0E82EFAD7120069
:0604FA0000EE00F00F0E01
:08050000EE6AEA62FDD7120069
:08050800930F810F950F830F83
:0C051000940F820F0000000000000000AB
:00000001FF
